:020000040800F2
:1000000018040020FD08000825070008270700083D
:10001000290700082B0700082D0700080000000032
:100020000000000000000000000000002F07000892
:1000300031070008000000003307000835070008FA
:10004000190900081D0900082109000825090008F0
:10005000290900082D090008390700084B07000886
:100060003109000835090008390900083D09000870
:100070004109000845090008490900084D09000820
:10008000510900085509000859090008000000003E
:100090000000000000000000000000005D090008F2
:1000A0006109000865090008690900086D09000870
:1000B0007109000875090008790900087D09000820
:1000C0008109000885090008890900088D090008D0
:1000D0009109000895090008990900089D09000880
:1000E000A1090008A5090008A909000800000000EE
:1000F0000000000000000000000000000000000000
:1001000000000000000000000000000000000000EF
:1001100000000000000000006D070008AD090008A5
:100120002DE9F843024600200025644BDFF890914A
:1001300001270E68AF403E40BE4240F0AC804C68A4
:100140006CB3012C20D0022C23D0032C32D0112CE4
:100150001CD0122C20D0DFF86CE174451CBFDFF8F6
:1001600068E174451BD0DFF864E174451CBFDFF81B
:1001700060E1744513D0DFF85CE174451CBFDFF823
:1001800058E174450BD016E0C86814E0C868001D3B
:1001900011E0C86808300EE0C8680C300BE08868D1
:1001A00008B9042007E0012819BF0820576108207A
:1001B000176100E00020B6F5807F03D294464FEA35
:1001C000850E05E0A5F1080402F1040C4FEA840E47
:1001D0000F27DCF8008007FA0EF428EA040400FA7E
:1001E0000EFE4EEA0404CCF800404C68E40052D500
:1001F000D9F80040DFF8E4E044F00104C9F8004019
:100200004FEA950CD9F8004004F0010400944FEA3D
:100210008508009C5EF82C4008F00C0807FA08F7E7
:1002200024EA07072E4CA24208BF00240ED02D4C12
:10023000A24208BF012409D02B4CA24208BF0224CD
:1002400004D02A4CA2420CBF0324042404FA08F46C
:1002500027434EF82C70F7434C68E4031C684CBFEE
:1002600034433C401C604C68A4035C684CBF34437E
:100270003C405C604C68E4029C684CBF34433C40AA
:100280009C604C68A40203D5DF683E43DE6002E058
:10029000DE683740DF606D1C0F2D7FF649AFBDE88B
:1002A000F18302B9090401617047114A13680342DE
:1002B0001CBF106000F01EB8704700000004014031
:1002C0001810024000001110000012100000211050
:1002D0000000221000003110000032100800014020
:1002E00000080140000C01400010014000140140D2
:1002F000140401407047000018B585B000F0E2F822
:1003000000F061F86846102100F0E8F86148624C9E
:10031000016841F010010160026802F010020492CD
:100320000499026842F020020260036803F020038F
:1003300004930499026842F004020260036803F027
:10034000040304930499026842F008020260012247
:10035000006800F0080004900B2104982046FFF785
:10036000A0FF03204D4900900191012202926946AD
:100370004B48FFF7D5FE0B2100911122019200217D
:1003800002910222039269462046FFF7C9FE00222D
:100390000021062000F0C0F8062000F0DAF8002264
:1003A0000021072000F0B8F8072000F0D2F800F094
:1003B0003BF83C48C16841F00101C160026842F06D
:1003C00001020260FEE710B53748016821F0F8012C
:1003D00041F080010160026842F0010202600168A0
:1003E0008907FCD5426822F0F0024260416821F49E
:1003F000E0614160416821F46051416041688908D1
:1004000089004160416811F00C0FFBD1274C204658
:1004100000F0CAF82648016841F004010160204656
:10042000BDE8104000F0CCB810B586B001A814218A
:1004300000F054F81F482049046844F01004046098
:1004400000230068174C00F01000009000980A6824
:100450001A481B4A03704FF48001116041F63F7344
:10046000002102914FF47A72ADF80430039201A991
:10047000204600F0ADF8206820F080002060616820
:1004800021F070016160A06820F08000A06006B0DB
:1004900010BD000018100240000C014000001110B7
:1004A00000080140001000400010024000127A00D5
:1004B00010E000E01C1002400CED00E036E400E02B
:1004C00004E100E080B5032000F019F8002000F0FE
:1004D000CDF800F0EBF8002002BD0000002200F093
:1004E00007B900000901020006D5294A00F00F00F3
:1004F000104400F8041C7047264B19547047264BD3
:1005000019684FF6FF020002114000F4E060084352
:10051000224908431860704738B51F4B1C68C4F364
:100520000223C3F10704052C28BF04241D1D072D39
:1005300034BF0023DB1E012505FA04F4641E2140AC
:10054000994005FA03F35B1E1A401143BDE834409D
:10055000C8E7012200F01F01114BFFE78A40400964
:1005600043F82020704710B5401EB0F1807F01D3C2
:10057000012010BD0B4C60600F214FF0FF30FFF7E2
:10058000B1FF0021A16007202060002010BD000005
:1005900018ED00E000E400E00CED00E00000FA05DA
:1005A00000E100E010E000E04FF47A720649B0FB91
:1005B000F2F0401E486000238B6005200860704701
:1005C000024908607047000010E000E00C000020C5
:1005D000F0B5DFF880E00368DFF88C40DFF8845086
:1005E000DFF87C60DFF87470DFF86CC0704518BF0E
:1005F000B0F1804F03D0604518BFB84209D14A68B6
:1006000023F07003134370451CBFB0F1804F604569
:1006100007D0B84218BFB04203D0A84218BFA042CA
:1006200003D1CA6823F440731343036070458A689A
:10063000C26218BFB0420A88826203D0A84218BFC3
:10064000A04201D1097C0163416941F0010141618E
:100650000120F0BD002C01400004004000080040D3
:1006600000400140004401400048014038B50D4DB4
:100670000D4B2A7804464FF47A711868B1FBF2F2F8
:10068000B0FBF2F0FFF76FFF50B9102C08D2002238
:1006900021464FF0FF30FFF73FFFAC60002032BD36
:1006A000012032BD000000200C0000200E4881B067
:1006B000016841F001010160026802F0010200924C
:1006C0000099426842F080524260406800F08050D9
:1006D000009000980548016821F0E06141F0007148
:1006E000016001B0704700BF1810024004000140D3
:1006F00000B500BF130096469446103928BFA0E805
:100700000C50FAD85FEA417C28BF0CC048BF40F8C3
:10071000042BC90728BF20F8022B48BF00F8012B83
:1007200000BD00007047FEE7FEE7FEE7FEE770470A
:100730007047704700F04EB823480168491E894150
:10074000C90F01600120FFF7B0BD10B51E4C1F4856
:100750000023236001220B21FFF7A3FD002161602C
:100760000220BDE81040FFF7A0BD000038B51849D1
:10077000154C6FF0010008602268012A22D16368DD
:10078000124D032B11D8DFE803F00205070E0022FB
:1007900001210BE0002206E001212846FFF781FD40
:1007A0000022082102E0022100E00B212846FFF789
:1007B00078FD6068401C411000EB91729210A0EB34
:1007C0008200606031BD000010000020000C01407C
:1007D0001010004002494A68087882184A60704741
:1007E0000000002010B50F4A0F49106840F00100CA
:1007F000106053680D480B40536014680440146047
:10080000116821F4802111604FF41F01506820F419
:10081000FE00506091600020D0624FF00061044AF9
:10082000116010BD001002400000FFF8FFFFF6FE4F
:1008300008ED00E030B450F8041B79B10268436859
:1008400002440830DC0744BFA9F10104E31852F860
:10085000045B43F8045B091FF9D1ECE730BC704737
:1008600010B5074979441831064C7C44163404E02D
:100870000A68081D114488470146A142F8D110BDFD
:100880000800000018000000ADFFFFFF1800000086
:1008900054000000000000200000000000F00DF8EF
:1008A000002801D0FFF7DCFFAFF300800020AFF39A
:1008B0000080FFF721FD00F002F80120704700F0F2
:1008C00001B800000746384600F002F8FBE70000D8
:1008D00080B5AFF30080024A11001820ABBEFBE7E1
:1008E00026000200010000000000000010000000CF
:1008F00000366E0100000000000000000148804743
:1009000001480047E50700080D090008AFF3008023
:10091000AFF30080FFF7C2FFFFF7FEBFFFF7FEBF98
:10092000FFF7FEBFFFF7FEBFFFF7FEBFFFF7FEBFFB
:10093000FFF7FEBFFFF7FEBFFFF7FEBFFFF7FEBFEB
:10094000FFF7FEBFFFF7FEBFFFF7FEBFFFF7FEBFDB
:10095000FFF7FEBFFFF7FEBFFFF7FEBFFFF7FEBFCB
:10096000FFF7FEBFFFF7FEBFFFF7FEBFFFF7FEBFBB
:10097000FFF7FEBFFFF7FEBFFFF7FEBFFFF7FEBFAB
:10098000FFF7FEBFFFF7FEBFFFF7FEBFFFF7FEBF9B
:10099000FFF7FEBFFFF7FEBFFFF7FEBFFFF7FEBF8B
:1009A000FFF7FEBFFFF7FEBFFFF7FEBFFFF7FEBF7B
:040000050800090DD9
:00000001FF
